:100000000C942A000C9434000C9434000C943400AA
:100010000C9434000C9434000C9434000C94340090
:100020000C9434000C9434000C9434000C94340080
:100030000C9434000C9434000C9434000C94340070
:100040000C9434000C9434000C9434000C94340060
:100050000C94340011241FBECFE5D8E0DEBFCDBF25
:100060000E9438000C946E000C94000001C017C070
:1000700008E000935E000FE500935D0003E000934D
:10008000370000E00093310004E00093320003E009
:100090000093550000E400935B007894FFCF01E0EB
:1000A0000093380001D018950F9305E013E01093EA
:1000B000380008D011E01093380004D00A95B1F749
:1000C0000F9108952F933F9328EC38EC00003A9558
:1000D000E9F72A95D1F73F912F910895F894FFCF32
:00000001FF
