:100000000C942A000C9434000C9434000C943400AA
:100010000C9434000C9434000C9434000C94340090
:100020000C9434000C9434000C9434000C94340080
:100030000C9434000C9434000C9434000C94340070
:100040000C9434000C9434000C9434000C94340060
:100050000C94340011241FBECFE5D8E0DEBFCDBF25
:100060000E9446000C9466000C9400000FC0000033
:100070000000000000000000000000000000000080
:1000800000000000000000000000000008E00093F5
:100090005E000FE500935D000FEF0093340000E079
:1000A000009335000AEA0093350005D005E500937A
:1000B000350001D0F7CF1F932F9318E726EA2A9532
:1000C000F1F71A95D9F72F911F910895F894FFCF62
:00000001FF
